:100000000C9456000C9475000C9475000C947500BB
:100010000C9475000C9475000C9475000C9475008C
:100020000C9475000C9475000C9475000C9475007C
:100030000C9475000C941C010C9475000C947500C4
:100040000C9475000C9475000C9475000C9475005C
:100050000C9475000C9475000C9475000C9475004C
:100060000C9475000C9475000C9475000C9475003C
:100070000C9475000C9475000C9475000C9475002C
:100080000C9475000C9475000C9475009B01D101C3
:1000900011025902A102E1022003310371039B0303
:1000A0009B039B0373037A0381038E0311241FBEFA
:1000B000CFEFD0E4DEBFCDBF11E0A0E0B1E0EEEDC8
:1000C000F7E000E00BBF02C007900D92A431B1072A
:1000D000D9F721E0A4E1B1E001C01D92AA31B20735
:1000E000E1F70E94AA030C94ED030C940000CF9357
:1000F000DF9300D01F92CDB7DEB789837B836A83FD
:1001000089818A3031F48A819B81BC018DE00E9413
:10011000770080EC90E0FC018081882F90E0807275
:100120009927892BB1F386EC90E02981FC0120838B
:1001300080E090E00F900F900F90DF91CF910895A5
:10014000CF93DF9300D000D0CDB7DEB769837A8339
:100150008B839C8389819A81AB81BC8180930E01C2
:1001600090930F01A0931001B093110180910E01A3
:1001700090910F01A0911001B09111018093150190
:1001800090931601A0931701B093180100000F90EF
:100190000F900F900F90DF91CF910895CF93DF9341
:1001A000CDB7DEB781E890E02BE0FC01208388E842
:1001B00090E02DE730E0FC01318320838FE690E072
:1001C00022E0FC01208384E890E0FC01118210828F
:1001D00080910E0190910F01A0911001B091110139
:1001E0008093150190931601A0931701B093180105
:1001F0008FE590E02FE530E0F90120812068FC01D7
:1002000020830000DF91CF910895CF93DF93CDB786
:10021000DEB781E890E0FC0110820000DF91CF9111
:100220000895CF93DF93CDB7DEB781E080931401BB
:100230000000DF91CF9108951F920F9200905F0010
:100240000F92112400905B000F922F933F934F93D6
:100250005F936F937F938F939F93AF93BF93EF932E
:10026000FF93CF93DF93CDB7DEB7809115019091C7
:100270001601A0911701B09118010197A109B109C8
:100280008093150190931601A0931701B093180164
:100290008091150190911601A0911701B09118015C
:1002A000892B8A2B8B2B91F40E94110180910E01D6
:1002B00090910F01A0911001B0911101809315014F
:1002C00090931601A0931701B09318010000DF91DD
:1002D000CF91FF91EF91BF91AF919F918F917F91BE
:1002E0006F915F914F913F912F910F9000925B0022
:1002F0000F9000925F000F901F901895CF93DF939F
:1003000000D0CDB7DEB789836A83809112019091C6
:100310001301CC01A0E0B0E040E050E027E030E085
:10032000841B950B2817390708F4ACC18A5B9F4FD3
:10033000FC010C94E4038981882339F481E090E086
:100340009093130180931201A8C18981882F90E0B6
:1003500081709927892B71F08981882F90E08270B4
:100360009927892B39F484E090E0909313018093CE
:10037000120193C18981882F90E082709927892B7F
:1003800009F48BC18981882F90E081709927892B8E
:1003900009F083C185E090E09093130180931201EE
:1003A0007CC18981882F90E081709927892B71F019
:1003B0008981882F90E082709927892B39F484E015
:1003C00090E090931301809312012AC08981882FB5
:1003D00090E082709927892B71F08981882F90E0B5
:1003E00081709927892B39F485E090E0909313016F
:1003F0008093120115C08981882F90E08170992720
:10040000892B09F44CC18981882F90E0827099274B
:10041000892B09F444C110921301109212013FC1BB
:100420003EC18981882389F0809119018F5F809373
:100430001901809119018A3009F033C186E090E0FA
:1004400090931301809312012CC18981882339F480
:1004500081E090E0909313018093120122C1898181
:10046000882F90E082709927892B71F08981882FDD
:1004700090E081709927892B39F485E090E0909382
:100480001301809312010DC18981882F90E0817042
:100490009927892B09F405C18981882F90E0827002
:1004A0009927892B09F4FDC01092130110921201B3
:1004B000F8C08981882389F0809119018F5F80932A
:1004C0001901809119018A3009F0EDC087E090E0B0
:1004D0009093130180931201E6C08981882339F437
:1004E00081E090E09093130180931201DCC0898138
:1004F000882F90E081709927892B71F08981882F4E
:1005000090E082709927892B39F484E090E09093F1
:10051000130180931201C7C08981882F90E08170F8
:100520009927892B09F4BFC08981882F90E08270B8
:100530009927892B09F4B7C0109213011092120168
:10054000B2C08981882F90E081709927892B71F042
:100550008981882F90E082709927892B39F482E075
:1005600090E090931301809312012AC08981882F13
:1005700090E082709927892B71F08981882F90E013
:1005800081709927892B39F485E090E090931301CD
:100590008093120115C08981882F90E0817099277E
:1005A000892B09F482C08981882F90E08270992775
:1005B000892B09F47AC0109213011092120175C0B0
:1005C00074C08981882F90E081709927892B71F000
:1005D0008981882F90E082709927892B39F484E0F3
:1005E00090E0909313018093120129C08981882F94
:1005F00090E082709927892B71F08981882F90E093
:1006000081709927892B39F483E090E0909313014E
:100610008093120114C08981882F90E081709927FE
:10062000892B09F444C08981882F90E08270992732
:10063000892BE9F1109213011092120138C037C0D2
:10064000809119018F5F809319018981882389F531
:1006500081E090E0909313018093120110921901B0
:1006600028C0809119018F5F8093190189818823A7
:1006700011F581E090E090931301809312011092A4
:10068000190119C087E08A831092190181E090E076
:1006900090931301809312010FC000000DC0000061
:1006A0000BC0000009C0000007C0000005C000002A
:1006B00003C0000001C0000080911201909113015D
:1006C000CC01A0E0B0E040E050E027E030E0841B47
:1006D000950B28173907C0F1825B9F4FFC010C94E2
:1006E000E4031A8231C08A81893038F58A818F5FAC
:1006F0008A8323C08A81882311F18A8181508A8369
:100700001EC08A818930E8F4809119018A30C9F4C9
:100710008A818F5F8A831092190113C08A8188238E
:1007200091F0809119018A3071F48A8181508A8315
:100730001092190108C0000007C0000005C00000A9
:1007400003C0000001C000008A810F900F90DF916C
:10075000CF910895CF93DF9300D0CDB7DEB781E27C
:1007600090E0FC01108282E290E02FEFFC012083F8
:1007700084E290E02FEFFC01208385E290E0FC0111
:10078000108264E670E080E090E00E94A0000E9489
:10079000CE001A82198280E290E0FC01808180956F
:1007A00083708A8369818A810E947E01898385E2C0
:1007B00090E02981FC0120830000809114018823AE
:1007C000E1F310921401E7CFEE0FFF1F0024001C8D
:0E07D0000BBE0790F691E02D0994F894FFCF30
:1007DE000000000200000000770000000000010091
:0407EE000000FFFF09
:00000001FF
